{"abi":[{"type":"constructor","inputs":[],"stateMutability":"nonpayable"},{"type":"function","name":"DOMAIN_SEPARATOR","inputs":[],"outputs":[{"name":"","type":"bytes32","internalType":"bytes32"}],"stateMutability":"view"},{"type":"function","name":"UPGRADE_INTERFACE_VERSION","inputs":[],"outputs":[{"name":"","type":"string","internalType":"string"}],"stateMutability":"view"},{"type":"function","name":"acceptOwnership","inputs":[],"outputs":[],"stateMutability":"nonpayable"},{"type":"function","name":"allocOrderStorage","inputs":[{"name":"count","type":"uint256","internalType":"uint256"}],"outputs":[],"stateMutability":"nonpayable"},{"type":"function","name":"allowance","inputs":[{"name":"owner","type":"address","internalType":"address"},{"name":"spender","type":"address","internalType":"address"}],"outputs":[{"name":"","type":"uint256","internalType":"uint256"}],"stateMutability":"view"},{"type":"function","name":"approve","inputs":[{"name":"spender","type":"address","internalType":"address"},{"name":"value","type":"uint256","internalType":"uint256"}],"outputs":[{"name":"","type":"bool","internalType":"bool"}],"stateMutability":"nonpayable"},{"type":"function","name":"asksIds","inputs":[],"outputs":[{"name":"size","type":"uint256","internalType":"uint256"}],"stateMutability":"view"},{"type":"function","name":"balanceOf","inputs":[{"name":"account","type":"address","internalType":"address"}],"outputs":[{"name":"","type":"uint256","internalType":"uint256"}],"stateMutability":"view"},{"type":"function","name":"batchChangeOrder","inputs":[{"name":"orderIds","type":"uint64[]","internalType":"uint64[]"},{"name":"quantities","type":"uint128[]","internalType":"uint128[]"},{"name":"prices","type":"uint72[]","internalType":"uint72[]"},{"name":"maxCommissionPerOrder","type":"uint128","internalType":"uint128"},{"name":"postOnly","type":"bool","internalType":"bool"},{"name":"expired","type":"uint256","internalType":"uint256"}],"outputs":[{"name":"newOrderIds","type":"uint64[]","internalType":"uint64[]"}],"stateMutability":"nonpayable"},{"type":"function","name":"batchClaimOrder","inputs":[{"name":"orderIds","type":"uint64[]","internalType":"uint64[]"},{"name":"expired","type":"uint256","internalType":"uint256"}],"outputs":[],"stateMutability":"nonpayable"},{"type":"function","name":"bidsIds","inputs":[],"outputs":[{"name":"size","type":"uint256","internalType":"uint256"}],"stateMutability":"view"},{"type":"function","name":"changeLiquidityInitializer","inputs":[{"name":"liquidityInitializer_","type":"address","internalType":"address"}],"outputs":[],"stateMutability":"nonpayable"},{"type":"function","name":"changeMarketMaker","inputs":[{"name":"marketMaker_","type":"address","internalType":"address"}],"outputs":[],"stateMutability":"nonpayable"},{"type":"function","name":"changeOrder","inputs":[{"name":"oldOrderId","type":"uint64","internalType":"uint64"},{"name":"newQuantity","type":"uint128","internalType":"uint128"},{"name":"newPrice","type":"uint72","internalType":"uint72"},{"name":"maxCommission","type":"uint128","internalType":"uint128"},{"name":"postOnly","type":"bool","internalType":"bool"},{"name":"expired","type":"uint256","internalType":"uint256"}],"outputs":[{"name":"orderId","type":"uint64","internalType":"uint64"}],"stateMutability":"nonpayable"},{"type":"function","name":"changePauser","inputs":[{"name":"pauser_","type":"address","internalType":"address"}],"outputs":[],"stateMutability":"nonpayable"},{"type":"function","name":"claimOrder","inputs":[{"name":"orderId","type":"uint64","internalType":"uint64"},{"name":"expired","type":"uint256","internalType":"uint256"}],"outputs":[],"stateMutability":"nonpayable"},{"type":"function","name":"currentAskOrderId","inputs":[],"outputs":[{"name":"","type":"uint64","internalType":"uint64"}],"stateMutability":"view"},{"type":"function","name":"currentBidOrderId","inputs":[],"outputs":[{"name":"","type":"uint64","internalType":"uint64"}],"stateMutability":"view"},{"type":"function","name":"decimals","inputs":[],"outputs":[{"name":"","type":"uint8","internalType":"uint8"}],"stateMutability":"view"},{"type":"function","name":"deposit","inputs":[{"name":"amountTokenX","type":"uint128","internalType":"uint128"},{"name":"amountTokenY","type":"uint128","internalType":"uint128"},{"name":"minAmountLpToken","type":"uint256","internalType":"uint256"}],"outputs":[],"stateMutability":"nonpayable"},{"type":"function","name":"eip712Domain","inputs":[],"outputs":[{"name":"fields","type":"bytes1","internalType":"bytes1"},{"name":"name","type":"string","internalType":"string"},{"name":"version","type":"string","internalType":"string"},{"name":"chainId","type":"uint256","internalType":"uint256"},{"name":"verifyingContract","type":"address","internalType":"address"},{"name":"salt","type":"bytes32","internalType":"bytes32"},{"name":"extensions","type":"uint256[]","internalType":"uint256[]"}],"stateMutability":"view"},{"type":"function","name":"ethPriceFeedId","inputs":[],"outputs":[{"name":"","type":"bytes32","internalType":"bytes32"}],"stateMutability":"view"},{"type":"function","name":"getConfig","inputs":[],"outputs":[{"name":"administrator_","type":"address","internalType":"address"},{"name":"marketMaker_","type":"address","internalType":"address"},{"name":"liquidityInitializer_","type":"address","internalType":"address"},{"name":"pauser_","type":"address","internalType":"address"},{"name":"penalty_","type":"uint256","internalType":"uint256"}],"stateMutability":"view"},{"type":"function","name":"initialize","inputs":[{"name":"lob_","type":"address","internalType":"address"},{"name":"helper_","type":"address","internalType":"address"},{"name":"name_","type":"string","internalType":"string"},{"name":"symbol_","type":"string","internalType":"string"},{"name":"administrator_","type":"address","internalType":"address"},{"name":"marketMaker_","type":"address","internalType":"address"},{"name":"liquidityInitializer_","type":"address","internalType":"address"},{"name":"pauser_","type":"address","internalType":"address"},{"name":"penalty_","type":"uint256","internalType":"uint256"},{"name":"pythAddress_","type":"address","internalType":"address"},{"name":"ethPriceFeedId_","type":"bytes32","internalType":"bytes32"}],"outputs":[],"stateMutability":"nonpayable"},{"type":"function","name":"name","inputs":[],"outputs":[{"name":"","type":"string","internalType":"string"}],"stateMutability":"view"},{"type":"function","name":"nonces","inputs":[{"name":"owner","type":"address","internalType":"address"}],"outputs":[{"name":"","type":"uint256","internalType":"uint256"}],"stateMutability":"view"},{"type":"function","name":"owner","inputs":[],"outputs":[{"name":"","type":"address","internalType":"address"}],"stateMutability":"view"},{"type":"function","name":"pause","inputs":[],"outputs":[],"stateMutability":"nonpayable"},{"type":"function","name":"paused","inputs":[],"outputs":[{"name":"","type":"bool","internalType":"bool"}],"stateMutability":"view"},{"type":"function","name":"pendingOwner","inputs":[],"outputs":[{"name":"","type":"address","internalType":"address"}],"stateMutability":"view"},{"type":"function","name":"permit","inputs":[{"name":"owner","type":"address","internalType":"address"},{"name":"spender","type":"address","internalType":"address"},{"name":"value","type":"uint256","internalType":"uint256"},{"name":"deadline","type":"uint256","internalType":"uint256"},{"name":"v","type":"uint8","internalType":"uint8"},{"name":"r","type":"bytes32","internalType":"bytes32"},{"name":"s","type":"bytes32","internalType":"bytes32"}],"outputs":[],"stateMutability":"nonpayable"},{"type":"function","name":"placeOrder","inputs":[{"name":"isAsk","type":"bool","internalType":"bool"},{"name":"quantity","type":"uint128","internalType":"uint128"},{"name":"price","type":"uint72","internalType":"uint72"},{"name":"maxCommission","type":"uint128","internalType":"uint128"},{"name":"marketOnly","type":"bool","internalType":"bool"},{"name":"postOnly","type":"bool","internalType":"bool"},{"name":"expired","type":"uint256","internalType":"uint256"}],"outputs":[{"name":"orderId","type":"uint64","internalType":"uint64"}],"stateMutability":"nonpayable"},{"type":"function","name":"proxiableUUID","inputs":[],"outputs":[{"name":"","type":"bytes32","internalType":"bytes32"}],"stateMutability":"view"},{"type":"function","name":"pyth","inputs":[],"outputs":[{"name":"","type":"address","internalType":"contract IPyth"}],"stateMutability":"view"},{"type":"function","name":"renounceOwnership","inputs":[],"outputs":[],"stateMutability":"nonpayable"},{"type":"function","name":"symbol","inputs":[],"outputs":[{"name":"","type":"string","internalType":"string"}],"stateMutability":"view"},{"type":"function","name":"tokenX","inputs":[],"outputs":[{"name":"","type":"address","internalType":"contract IERC20"}],"stateMutability":"view"},{"type":"function","name":"tokenY","inputs":[],"outputs":[{"name":"","type":"address","internalType":"contract IERC20"}],"stateMutability":"view"},{"type":"function","name":"totalSupply","inputs":[],"outputs":[{"name":"","type":"uint256","internalType":"uint256"}],"stateMutability":"view"},{"type":"function","name":"transfer","inputs":[{"name":"to","type":"address","internalType":"address"},{"name":"value","type":"uint256","internalType":"uint256"}],"outputs":[{"name":"","type":"bool","internalType":"bool"}],"stateMutability":"nonpayable"},{"type":"function","name":"transferFrom","inputs":[{"name":"from","type":"address","internalType":"address"},{"name":"to","type":"address","internalType":"address"},{"name":"value","type":"uint256","internalType":"uint256"}],"outputs":[{"name":"","type":"bool","internalType":"bool"}],"stateMutability":"nonpayable"},{"type":"function","name":"transferOwnership","inputs":[{"name":"newOwner","type":"address","internalType":"address"}],"outputs":[],"stateMutability":"nonpayable"},{"type":"function","name":"unpause","inputs":[],"outputs":[],"stateMutability":"nonpayable"},{"type":"function","name":"updateQuotes","inputs":[{"name":"priceUpdateData","type":"bytes[]","internalType":"bytes[]"}],"outputs":[],"stateMutability":"payable"},{"type":"function","name":"updateReservesAndOrders","inputs":[],"outputs":[{"name":"reserves","type":"tuple","internalType":"struct HanjiVault.Reserves","components":[{"name":"depositedTokenX","type":"uint128","internalType":"uint128"},{"name":"depositedTokenY","type":"uint128","internalType":"uint128"},{"name":"ordersAmountTokenX","type":"uint128","internalType":"uint128"},{"name":"ordersAmountTokenY","type":"uint128","internalType":"uint128"}]},{"name":"asks","type":"tuple[]","internalType":"struct HanjiVault.Order[]","components":[{"name":"orderId","type":"uint64","internalType":"uint64"},{"name":"price","type":"uint72","internalType":"uint72"},{"name":"leaveQty","type":"uint128","internalType":"uint128"}]},{"name":"bids","type":"tuple[]","internalType":"struct HanjiVault.Order[]","components":[{"name":"orderId","type":"uint64","internalType":"uint64"},{"name":"price","type":"uint72","internalType":"uint72"},{"name":"leaveQty","type":"uint128","internalType":"uint128"}]}],"stateMutability":"nonpayable"},{"type":"function","name":"upgradeToAndCall","inputs":[{"name":"newImplementation","type":"address","internalType":"address"},{"name":"data","type":"bytes","internalType":"bytes"}],"outputs":[],"stateMutability":"payable"},{"type":"function","name":"withdraw","inputs":[{"name":"amountLpToken","type":"uint256","internalType":"uint256"},{"name":"minAmountTokenX","type":"uint128","internalType":"uint128"},{"name":"minAmountTokenY","type":"uint128","internalType":"uint128"},{"name":"maxCommissionPerOrder","type":"uint128","internalType":"uint128"},{"name":"expired","type":"uint256","internalType":"uint256"}],"outputs":[],"stateMutability":"nonpayable"},{"type":"event","name":"Approval","inputs":[{"name":"owner","type":"address","indexed":true,"internalType":"address"},{"name":"spender","type":"address","indexed":true,"internalType":"address"},{"name":"value","type":"uint256","indexed":false,"internalType":"uint256"}],"anonymous":false},{"type":"event","name":"Deposit","inputs":[{"name":"from","type":"address","indexed":true,"internalType":"address"},{"name":"amountTokenX","type":"uint128","indexed":false,"internalType":"uint128"},{"name":"amountTokenY","type":"uint128","indexed":false,"internalType":"uint128"},{"name":"amountLpToken","type":"uint256","indexed":false,"internalType":"uint256"}],"anonymous":false},{"type":"event","name":"EIP712DomainChanged","inputs":[],"anonymous":false},{"type":"event","name":"Initialized","inputs":[{"name":"version","type":"uint64","indexed":false,"internalType":"uint64"}],"anonymous":false},{"type":"event","name":"LiquidityInitializerChanged","inputs":[{"name":"newLiquidityInitializer","type":"address","indexed":false,"internalType":"address"},{"name":"oldLiquidityInitializer","type":"address","indexed":false,"internalType":"address"}],"anonymous":false},{"type":"event","name":"MarketMakerChanged","inputs":[{"name":"newMarketMaker","type":"address","indexed":false,"internalType":"address"},{"name":"oldMarketMaker","type":"address","indexed":false,"internalType":"address"}],"anonymous":false},{"type":"event","name":"OwnershipTransferStarted","inputs":[{"name":"previousOwner","type":"address","indexed":true,"internalType":"address"},{"name":"newOwner","type":"address","indexed":true,"internalType":"address"}],"anonymous":false},{"type":"event","name":"OwnershipTransferred","inputs":[{"name":"previousOwner","type":"address","indexed":true,"internalType":"address"},{"name":"newOwner","type":"address","indexed":true,"internalType":"address"}],"anonymous":false},{"type":"event","name":"Paused","inputs":[{"name":"account","type":"address","indexed":false,"internalType":"address"}],"anonymous":false},{"type":"event","name":"PauserChanged","inputs":[{"name":"newPauser","type":"address","indexed":false,"internalType":"address"},{"name":"oldPauser","type":"address","indexed":false,"internalType":"address"}],"anonymous":false},{"type":"event","name":"Transfer","inputs":[{"name":"from","type":"address","indexed":true,"internalType":"address"},{"name":"to","type":"address","indexed":true,"internalType":"address"},{"name":"value","type":"uint256","indexed":false,"internalType":"uint256"}],"anonymous":false},{"type":"event","name":"Unpaused","inputs":[{"name":"account","type":"address","indexed":false,"internalType":"address"}],"anonymous":false},{"type":"event","name":"Upgraded","inputs":[{"name":"implementation","type":"address","indexed":true,"internalType":"address"}],"anonymous":false},{"type":"event","name":"Withdraw","inputs":[{"name":"to","type":"address","indexed":true,"internalType":"address"},{"name":"amountTokenX","type":"uint128","indexed":false,"internalType":"uint128"},{"name":"amountTokenY","type":"uint128","indexed":false,"internalType":"uint128"},{"name":"amountLpToken","type":"uint256","indexed":false,"internalType":"uint256"}],"anonymous":false},{"type":"error","name":"AddressEmptyCode","inputs":[{"name":"target","type":"address","internalType":"address"}]},{"type":"error","name":"AddressInsufficientBalance","inputs":[{"name":"account","type":"address","internalType":"address"}]},{"type":"error","name":"ECDSAInvalidSignature","inputs":[]},{"type":"error","name":"ECDSAInvalidSignatureLength","inputs":[{"name":"length","type":"uint256","internalType":"uint256"}]},{"type":"error","name":"ECDSAInvalidSignatureS","inputs":[{"name":"s","type":"bytes32","internalType":"bytes32"}]},{"type":"error","name":"ERC1967InvalidImplementation","inputs":[{"name":"implementation","type":"address","internalType":"address"}]},{"type":"error","name":"ERC1967NonPayable","inputs":[]},{"type":"error","name":"ERC20InsufficientAllowance","inputs":[{"name":"spender","type":"address","internalType":"address"},{"name":"allowance","type":"uint256","internalType":"uint256"},{"name":"needed","type":"uint256","internalType":"uint256"}]},{"type":"error","name":"ERC20InsufficientBalance","inputs":[{"name":"sender","type":"address","internalType":"address"},{"name":"balance","type":"uint256","internalType":"uint256"},{"name":"needed","type":"uint256","internalType":"uint256"}]},{"type":"error","name":"ERC20InvalidApprover","inputs":[{"name":"approver","type":"address","internalType":"address"}]},{"type":"error","name":"ERC20InvalidReceiver","inputs":[{"name":"receiver","type":"address","internalType":"address"}]},{"type":"error","name":"ERC20InvalidSender","inputs":[{"name":"sender","type":"address","internalType":"address"}]},{"type":"error","name":"ERC20InvalidSpender","inputs":[{"name":"spender","type":"address","internalType":"address"}]},{"type":"error","name":"ERC2612ExpiredSignature","inputs":[{"name":"deadline","type":"uint256","internalType":"uint256"}]},{"type":"error","name":"ERC2612InvalidSigner","inputs":[{"name":"signer","type":"address","internalType":"address"},{"name":"owner","type":"address","internalType":"address"}]},{"type":"error","name":"EnforcedPause","inputs":[]},{"type":"error","name":"ExpectedPause","inputs":[]},{"type":"error","name":"FailedInnerCall","inputs":[]},{"type":"error","name":"Forbidden","inputs":[]},{"type":"error","name":"InsufficientAmountLpToken","inputs":[]},{"type":"error","name":"InsufficientTokenX","inputs":[]},{"type":"error","name":"InsufficientTokenY","inputs":[]},{"type":"error","name":"InvalidAccountNonce","inputs":[{"name":"account","type":"address","internalType":"address"},{"name":"currentNonce","type":"uint256","internalType":"uint256"}]},{"type":"error","name":"InvalidInitialization","inputs":[]},{"type":"error","name":"InvalidPrice","inputs":[]},{"type":"error","name":"NotInitializing","inputs":[]},{"type":"error","name":"OnlyLiquidityInitializerCanDepositFirstTime","inputs":[]},{"type":"error","name":"OwnableInvalidOwner","inputs":[{"name":"owner","type":"address","internalType":"address"}]},{"type":"error","name":"OwnableUnauthorizedAccount","inputs":[{"name":"account","type":"address","internalType":"address"}]},{"type":"error","name":"ReentrancyGuardReentrantCall","inputs":[]},{"type":"error","name":"SafeERC20FailedOperation","inputs":[{"name":"token","type":"address","internalType":"address"}]},{"type":"error","name":"UUPSUnauthorizedCallContext","inputs":[]},{"type":"error","name":"UUPSUnsupportedProxiableUUID","inputs":[{"name":"slot","type":"bytes32","internalType":"bytes32"}]},{"type":"error","name":"Uint128Overflow","inputs":[]},{"type":"error","name":"WithdrawWithZeroSupplyIsNotPossible","inputs":[]},{"type":"error","name":"ZeroTokenBalanceIsNotAllowed","inputs":[]},{"type":"error","name":"ZeroTokenTransferNotAllowed","inputs":[]}],"bytecode":{"object":"0x60a080604052346100ea57306080527ff0c57e16840df040f15088dc2f81fe391c3923bec73e23a9662efc9c229c6a005460ff8160401c166100d9576002600160401b03196001600160401b03821601610073575b6040516157db90816100f08239608051818181611dfe0152611ea30152f35b6001600160401b0319166001600160401b039081177ff0c57e16840df040f15088dc2f81fe391c3923bec73e23a9662efc9c229c6a005581527fc7f505b2f371ae2175ee4913f4499e1f2633a7b5936321eed1cdaeb6115181d290602090a13880610054565b63f92ee8a960e01b60005260046000fd5b600080fdfe60e0604052600436101561001257600080fd5b6000803560e01c806271605f1461397b57806306fdde03146138ba578063095ea7b3146138935780630965c5131461373057806314fa2f5714612bcb57806316dc165b14612ba457806318160ddd14612b7957806323b872dd14612a995780632cd271e714612a6f578063313ce56714612a5357806333e20cf914612a355780633644e51514612a125780633f15ede6146120fc5780633f4ba83a1461207a5780634e80ad06146120505780634f1ef28614611e5357806352d1902d14611deb57806357f7eb9f14611dc15780635c975abb14611d915780636acbf9c014611cef578063705ce81214611cd157806370a0823114611c8b578063715018a614611c0a57806379ba509714611bbc5780637e25d3bb14611b115780637ecebe0014611aba5780638456cb5914611a0357806384b0196e146118b45780638da5cb5b1461187e57806395d89b411461178157806399c6cba0146116e1578063a9059cbb146116af578063ad3cb1cc14611662578063b7d19fc414611639578063c3f909d4146115d4578063cb957617146115b6578063d3a8d7c6146113fa578063d505accf14611293578063d81d96411461126c578063dd62ed3e14611222578063dd6cbafe14610d37578063e30c397814610d01578063f2fde38b14610c79578063f84b1ef4146102e6578063f98d06f0146102bd578063f9920799146102505763fc30d5aa1461022157600080fd5b3461024d57602036600319011261024d5761024a61023d613ee0565b6102456149f5565b6146b8565b80f35b80fd5b503461024d57604036600319011261024d5761026a613d8d565b6006546001600160a01b031633036102ae576102999061028861471f565b61029061475b565b602435906150a8565b60016000805160206157468339815191525580f35b631dd2188d60e31b8252600482fd5b503461024d578060031936011261024d57600e546040516001600160a01b039091168152602090f35b50602036600319011261024d576004356001600160401b038111610bc85736602382011215610bc8578060040135906001600160401b038211610c75576024810190602436918460051b010111610c755761033f61471f565b61034761475b565b600e5460405163d47eed4560e01b81526001600160a01b03909116926020828061037584876004840161454b565b0381875afa918215610c6a578592610c31575b50813410610bed578385943b15610be957604051631df3cbc560e31b81529385938593849283916103bc916004840161454b565b03925af180156106e957610bd4575b505060018060a01b03600e54166080600f546024604051809481936396834ad360e01b835260048301525afa9081156106e9578291610b50575b50606081015115610b42575160070b620186a0810290808204620186a01490151715610b2e576305f5e10090046103ed8102908015918181046103ed148317156106f4576103e89004916103e382029182046103e3141715610b1a576103e890049061047081615187565b60058111610afb575b5090600661048683615187565b1015610ab65761049581615187565b60058111610a91575b5060066104aa82615187565b1015610a4c576010546001600160481b03928316928492169082906001600160401b03811690811580159190610a3a5760055460048054604051631e678fe760e21b81526001600160a01b03918216928101929092526001600160401b0386166024830152909160e09183916044918391165afa908115610a2f5786916001600160481b03918b91610a09575b501603610a00575b6001600160401b03905b60401c1680156109f45760055460048054604051631e678fe760e21b81526001600160a01b03918216928101929092526001600160401b039390931660248201529160e09183916044918391165afa9081156109e95787916001600160481b03918a916109b3575b5016036109aa575b82905b816109a2575b506108f2575b5082806108db575b6107f0575b610708575b506105f6575b5060016000805160206157468339815191525580f35b6004546001600160a01b03169042610e108101919082106106f45790610104608092856040519586948593633d44fbd360e21b8552600160048601526001602486015260448501526001600160801b0360648501528260848501528260a48501528260c485015260e48401525af19081156106e9576106b1916001600160401b039184916106b7575b5067ffffffffffffffff60401b6010549160401b169067ffffffffffffffff60401b1916178060105560401c166151f0565b386105e0565b6106d9915060803d6080116106e2575b6106d18183613d55565b810190614334565b5050503861067f565b503d6106c7565b6040513d84823e3d90fd5b634e487b7160e01b84526011600452602484fd5b6004546001600160a01b03169042610e108101919082106107dc5790610104608092876040519586948593633d44fbd360e21b85528360048601526064602486015260448501526001600160801b0360648501528260848501528260a48501528260c485015260e48401525af19081156107d1576107a9916001600160401b039186916107af575b5016806001600160401b031960105416176010556151a8565b386105da565b6107c8915060803d6080116106e2576106d18183613d55565b50505038610790565b6040513d86823e3d90fd5b634e487b7160e01b86526011600452602486fd5b60045460105442610e108101926001600160a01b03169160401c6001600160401b03169083106108c7579160209187896108419560405196879586948593634587c05f60e01b85526004850161466e565b03925af180156108bc57610881575b506108686001600160401b0360105460401c16614871565b67ffffffffffffffff60401b19601054166010556105d5565b6020813d6020116108b4575b8161089a60209383613d55565b810103126108b0576108ab90613fe3565b610850565b8580fd5b3d915061088d565b6040513d88823e3d90fd5b634e487b7160e01b88526011600452602488fd5b506001600160401b0360105460401c1615156105d0565b60018060a01b0360045416610e104201918242116108c7579160209185896109319560405196879586948593634587c05f60e01b85526004850161466e565b03925af180156108bc5761096b575b506109556001600160401b03601054166147d3565b6001600160401b031960105416601055386105c8565b6020813d60201161099a575b8161098460209383613d55565b810103126108b05761099590613fe3565b610940565b3d9150610977565b9050386105c2565b600194506105b9565b6109d5915060e03d60e0116109e2575b6109cd8183613d55565b8101906145fe565b50505050509050386105b1565b503d6109c3565b6040513d8a823e3d90fd5b509350816001946105bc565b6001935061053f565b610a22915060e03d60e0116109e2576109cd8183613d55565b5050505050905038610537565b6040513d8b823e3d90fd5b92506001600160401b03600193610549565b60405162461bcd60e51b815260206004820152601a60248201527f6269642044696769747320617265206d6f7265207468616e20350000000000006044820152606490fd5b60041981019081116106f45790610aaa610ab0926145f0565b9061452b565b3861049e565b60405162461bcd60e51b815260206004820152601a60248201527f61736b2044696769747320617265206d6f7265207468616e20350000000000006044820152606490fd5b60041981019081116106f45790610aaa610b14926145f0565b38610479565b634e487b7160e01b83526011600452602483fd5b634e487b7160e01b82526011600452602482fd5b62bfc92160e01b8252600482fd5b90506080813d608011610bcc575b81610b6b60809383613d55565b81010312610bc85760405190610b8082613d09565b80518060070b8103610bc4578252610b9a60208201613fe3565b60208301526040810151908160030b8203610bc45760609160408401520151606082015238610405565b8380fd5b5080fd5b3d9150610b5e565b81610bde91613d55565b61024d5780386103cb565b8480fd5b606460405162461bcd60e51b815260206004820152602060248201527f496e73756666696369656e742066656520666f722050797468207570646174656044820152fd5b9091506020813d602011610c62575b81610c4d60209383613d55565b81010312610c5d57519038610388565b600080fd5b3d9150610c40565b6040513d87823e3d90fd5b8280fd5b503461024d57602036600319011261024d57610c93613ee0565b610c9b6149f5565b60008051602061578683398151915280546001600160a01b0319166001600160a01b039283169081179091556000805160206156a6833981519152549091167f38d16b8cac22d99fc7c124b9cd0de2d3fa1faef420bfe791d8c362d765e227008380a380f35b503461024d578060031936011261024d57600080516020615786833981519152546040516001600160a01b039091168152602090f35b503461024d57606036600319011261024d576004356001600160801b03811690818103610c7557610d66613e27565b610d6e61471f565b610d7661475b565b8091921580611211575b611203576040516318160ddd60e01b8152602081600481305afa908115610c6a5785916111d1575b50806110e25750506007546001600160a01b031633036110d3576001600160801b0382166001600160801b0382168082116000146110cc57505b60443581106110bd5733156110a957610e0a816000805160206156c683398151915254614661565b6000805160206156c68339815191525533845260008051602061564683398151915260205260408420818154019055604051818152847fddf252ad1be2c89b69c2b068fc378daa952ba7f163c4a11628f55a4df523b3ef60203393a383600254610e7e6001600160801b0386169182614433565b9060035491610e976001600160801b0387169384614433565b9082611005575b5082610f5f575b506004546001600160a01b031691823b15610bc45760448492836040519586948593633a93a93f60e11b8552600485015260248401525af180156106e957610f4a575b5050604080516001600160801b0394851681529390921660208401529082015233907ffb09a21711031b11a989fb3a9c29997d34c29972921b8aa061ed2b799ee5afca9080606081015b0390a260016000805160206157468339815191525580f35b81610f5491613d55565b610bc4578338610ee8565b602081610f7b610fbd93303360018060a01b0360015416615134565b6001546004805460405163095ea7b360e01b81526001600160a01b03918216928101929092526024820193909352938492909116908290889082906044820190565b03925af180156107d15715610ea5576020813d602011610ffd575b81610fe560209383613d55565b81010312610bc457610ff690614383565b5038610ea5565b3d9150610fd8565b60208161102061106193303360018060a01b038b5416615134565b86546004805460405163095ea7b360e01b81526001600160a01b03918216928101929092526024820193909352938492909116908290899082906044820190565b03925af18015610c6a5715610e9e576020813d6020116110a1575b8161108960209383613d55565b81010312610be95761109a90614383565b5038610e9e565b3d915061107c565b63ec442f0560e01b84526004849052602484fd5b6390573b7560e01b8452600484fd5b9050610de2565b631bbffa4160e11b8352600483fd5b90916110ec614a2b565b5050906001600160801b0380611126816111108187511682604089015116906143fd565b16948260608160208401511692015116906143fd565b169416806111a45750508015611195576111528161114d856001600160801b038816614433565b614fb6565b925b8082111561117d5750611173611178926001600160801b038616614433565b61452b565b610de2565b9050611173611178926001600160801b038516614433565b6309113f5560e31b8552600485fd5b9093809550156111c2578461114d836111bc93614433565b93611154565b6309113f5560e31b8652600486fd5b90506020813d6020116111fb575b816111ec60209383613d55565b81010312610c5d575138610da8565b3d91506111df565b62f8653360e71b8452600484fd5b506001600160801b03811615610d80565b503461024d57604036600319011261024d5761123c613ee0565b61124d611247613ef6565b916144f2565b9060018060a01b03166000526020526020604060002054604051908152f35b503461024d578060031936011261024d5760206001600160401b0360105416604051908152f35b503461024d5760e036600319011261024d576112ad613ee0565b906112b6613ef6565b604435906064359360843560ff81168103610be9578542116113e6576113a96113b29160018060a01b038416978888527f5ab42ced628888259c08ac98db1eb0cf702fc1501344311d8b100cd1bfe4bb0060205260408820908154916001830190556040519060208201927f6e71edae12b1b97f4d1f60370fef10105fa2faae0126114a169c64845d6126c984528b604084015260018060a01b038916606084015289608084015260a083015260c082015260c0815261137760e082613d55565b5190206113826152f7565b906040519161190160f01b83526002830152602282015260c43591604260a43592206153d4565b9092919261545d565b6001600160a01b0316948086036113cf575061024a939450615238565b6325c0072360e11b85526004869052602452604484fd5b63313c898160e11b85526004869052602485fd5b503461024d5760c036600319011261024d57611414613d8d565b9061141d613e27565b91611426613e3d565b61142e613e11565b611436613e53565b6006549092906001600160a01b031633036115a757849061145561471f565b61145d61475b565b6001851660011493600160a01b600190036004541690604051948593634587c05f60e01b85526001600160401b0389169a8b60048701526001600160801b031660248601526001600160481b031660448501526001600160801b03166064840152151560848301528260a483015260a43560c4830152815a9360e492602095f193841561159b578094611559575b505060016020946001600160401b0385169485611549575b5011611526575b5050600160008051602061574683398151915255604051908152f35b1561153b5761153490614871565b388061150a565b611544906147d3565b611534565b6115539084614785565b38611503565b909493506020853d602011611593575b8161157660209383613d55565b8101031261024d5750600161158c602095613fe3565b93946114eb565b3d9150611569565b604051903d90823e3d90fd5b631dd2188d60e31b8552600485fd5b503461024d578060031936011261024d576020600a54604051908152f35b503461024d578060031936011261024d576000805160206156a683398151915254600654600754600854600954604080516001600160a01b0396871681529486166020860152928516928401929092529092166060820152608081019190915260a090f35b503461024d578060031936011261024d576001546040516001600160a01b039091168152602090f35b503461024d578060031936011261024d57506116ab604051611685604082613d55565b60058152640352e302e360dc1b6020820152604051918291602083526020830190613e9f565b0390f35b503461024d57604036600319011261024d576116d66116cc613ee0565b6024359033614906565b602060405160018152f35b503461024d57604036600319011261024d576004356001600160401b038111610bc857611712903690600401613da3565b6006546024359291906001600160a01b031633036102ae5761173261471f565b61173a61475b565b815b815181101561176b5780611765856001600160401b0361175e60019587614138565b51166150a8565b0161173c565b8260016000805160206157468339815191525580f35b503461024d578060031936011261024d57604051908060008051602061568683398151915254906117b182614162565b808552916001811690811561185757506001146117ed575b6116ab846117d981860382613d55565b604051918291602083526020830190613e9f565b60008051602061568683398151915281527f46a2803e59a4de4e7a4c574b1243f25977ac4c77d5a1a4a609b5394cebb4a2aa939250905b80821061183d575090915081016020016117d9826117c9565b919260018160209254838588010152019101909291611824565b60ff191660208087019190915292151560051b850190920192506117d991508390506117c9565b503461024d578060031936011261024d576000805160206156a6833981519152546040516001600160a01b039091168152602090f35b503461024d578060031936011261024d577fa16a46d94261c7517cc8ff89f61c0ce93598e3c849801011dee649a6a557d1005415806119da575b1561199d57611941906118ff61419c565b9061190861426f565b90602061194f6040519361191c8386613d55565b8385526000368137604051968796600f60f81b885260e08589015260e0880190613e9f565b908682036040880152613e9f565b904660608601523060808601528260a086015284820360c08601528080855193848152019401925b82811061198657505050500390f35b835185528695509381019392810192600101611977565b60405162461bcd60e51b81526020600482015260156024820152741152540dcc4c8e88155b9a5b9a5d1a585b1a5e9959605a1b6044820152606490fd5b507fa16a46d94261c7517cc8ff89f61c0ce93598e3c849801011dee649a6a557d10154156118ee565b503461024d578060031936011261024d576000805160206156a6833981519152546001600160a01b031633148015611aa6575b15611a9757611a4361475b565b600160ff19600080516020615726833981519152541617600080516020615726833981519152557f62e78cea01bee320cd4e420270b5ea74000d11b0c9f74754ebdbfc544b05a2586020604051338152a180f35b631dd2188d60e31b8152600490fd5b506008546001600160a01b03163314611a36565b503461024d57602036600319011261024d576040602091611ad9613ee0565b6001600160a01b031681527f5ab42ced628888259c08ac98db1eb0cf702fc1501344311d8b100cd1bfe4bb0083522054604051908152f35b503461024d57602036600319011261024d57600435815b818110611b33578280f35b600b54600160401b811015611ba857806001611b549201600b55600b6147ae565b81549060031b906001821b91600019901b1916179055600d54600160401b811015611ba85790611b8d826001809401600d55600d6147ae565b81549060031b9084821b91600019901b191617905501611b28565b634e487b7160e01b84526041600452602484fd5b503461024d578060031936011261024d5760008051602061578683398151915254336001600160a01b0390911603611bf75761024a33615017565b63118cdaa760e01b815233600452602490fd5b503461024d578060031936011261024d57611c236149f5565b60008051602061578683398151915280546001600160a01b03199081169091556000805160206156a68339815191528054918216905581906001600160a01b03167f8be0079c531659141344cd1fd0a4f28419497f9722a3daafe3b4186f6b6457e08280a380f35b503461024d57602036600319011261024d576020906040906001600160a01b03611cb3613ee0565b16815260008051602061564683398151915283522054604051908152f35b503461024d578060031936011261024d576020600f54604051908152f35b503461024d578060031936011261024d57611d086144cd565b50611d1161471f565b611d1961475b565b6060611d836116ab611d29614a2b565b9193906001600080516020615746833981519152556001600160801b03604051968682899851168852826020820151166020890152826040820151166040890152015116606086015260c0608086015260c0850190613f7c565b9083820360a0850152613f7c565b503461024d578060031936011261024d57602060ff60008051602061572683398151915254166040519015158152f35b503461024d57602036600319011261024d5761024a611dde613ee0565b611de66149f5565b614466565b503461024d578060031936011261024d577f00000000000000000000000000000000000000000000000000000000000000006001600160a01b03163003611e445760206040516000805160206157068339815191528152f35b63703e46dd60e11b8152600490fd5b50604036600319011261024d57611e68613ee0565b906024356001600160401b038111610bc85736602382011215610bc857611e99903690602481600401359101613f27565b6001600160a01b037f00000000000000000000000000000000000000000000000000000000000000001630811490811561202d575b5061201e57611edb6149f5565b6040516352d1902d60e01b8152926001600160a01b0381169190602085600481865afa80958596611fea575b50611f2057634c9c8ce360e01b84526004839052602484fd5b9091846000805160206157068339815191528103611fd85750813b15611fc65760008051602061570683398151915280546001600160a01b031916821790557fbc7cd75a20ee27fd9adebab32041f755214dbc6bffa90cc0225b39da2e5c2d3b8480a28151839015611fac5780836020611fa895519101845af4611fa2615594565b916155c4565b5080f35b50505034611fb75780f35b63b398979f60e01b8152600490fd5b634c9c8ce360e01b8452600452602483fd5b632a87526960e21b8552600452602484fd5b9095506020813d602011612016575b8161200660209383613d55565b81010312610be957519438611f07565b3d9150611ff9565b63703e46dd60e11b8252600482fd5b600080516020615706833981519152546001600160a01b03161415905038611ece565b503461024d578060031936011261024d5760206001600160401b0360105460401c16604051908152f35b503461024d578060031936011261024d576120936149f5565b6000805160206157268339815191525460ff8116156120ed5760ff1916600080516020615726833981519152557f5db9ee0a495bf2e6ff9c91a7834c1ba4fdd244a5e8aa4e537bd38aeae4b073aa6020604051338152a180f35b638dfc202b60e01b8252600482fd5b503461024d5760a036600319011261024d576004359061211a613e27565b916044356001600160801b03811660a05260a05103610bc85761213b613e11565b9061214461471f565b61214c61475b565b8015612a04576040516318160ddd60e01b815291602083600481305afa9283156107d15784936129d0575b5082156129c157612186614a2b565b9092916121e76001600160801b036121a88184511682604086015116906143fd565b16966121db6121e0826121db6001600160801b036121d38160208a0151168260608b015116906143fd565b169b8b614433565b614f24565b9888614433565b9333156129ad573388526000805160206156468339815191526020526040882054868110612992578690338a52600080516020615646833981519152602052036040892055856000805160206156c683398151915254036000805160206156c683398151915255876040518781527fddf252ad1be2c89b69c2b068fc378daa952ba7f163c4a11628f55a4df523b3ef60203392a36001600160801b038251166001600160801b038816908181106126e7575b5050506001600160801b03602082015116916001600160801b03851692838110612429575b50506004546001600160a01b03169792505050853b15610be9576040519063795d488160e11b82528560048301526001600160801b038516918260248201528681606481836001600160801b0389169c8d60448401525af1801561241e57908791612409575b50506001600160801b031681106123fa5760a05186106123eb577fa8ab51a459e9de3f2e2c80ab08e918b964000fa894c6d5b466c4f7ad431f98e793949561236e60025483614433565b61237a60035483614433565b926123ce575b506123b0575b50604080516001600160801b03958616815294909116602085015283015233918060608101610f32565b6001546123c8919033906001600160a01b0316614fd6565b38612386565b87546123e5919033906001600160a01b0316614fd6565b38612380565b630d908eb560e31b8552600485fd5b630317570960e11b8552600485fd5b8161241391613d55565b6108b0578538612324565b6040513d89823e3d90fd5b6124399086949599989796614446565b6080526001600160801b036060830151169781515b801515806126ab575b1561246a57612465906147c6565b61244e565b9293949596979890899161247d85613d76565b9361248b6040519586613d55565b858552601f1961249a87613d76565b013660208701376124aa86613d76565b916124b86040519384613d55565b868352601f196124c788613d76565b013660208501376124d787613d76565b916124e56040519384613d55565b878352601f196124f489613d76565b01366020850137855b888110612604575050508360018060a01b0360045416926125386040519788968795869463ead9b57f60e01b86526084359360048701614078565b03925af19081156109e95788916125e2575b50875b82811061259e575050506125746001600160801b0360606125799301511660095490614433565b614f7c565b916001600160801b03831610156123eb579061259491614446565b38808080806122be565b806125dc6001600160401b036125b660019486614138565b51166125c383600b6147ae565b90919082549060031b91821b91600019901b1916179055565b0161254d565b6125fe91503d808a833e6125f68183613d55565b810190613ff7565b3861254a565b819293949596506001600160401b0361261f82600194614138565b51511661262c828a614138565b52612665846001600160801b0361265f816040612649878a614138565b5101511661265960805185614446565b90614f59565b16614f24565b6001600160801b036126778389614138565b911690526001600160481b03602061268f8386614138565b5101511661269d8287614138565b5201908d95949392916124fd565b5060001981018181116126d3576126ca6001600160401b039185614138565b51511615612457565b634e487b7160e01b8a52601160045260248afd5b6126fb908992939a99989796959498614446565b60c0526001600160801b036040880151169880515b80151580612956575b1561272c57612727906147c6565b612710565b919293949596979886819b61274085613d76565b9361274e6040519586613d55565b858552601f1961275d87613d76565b0136602087013761276d86613d76565b9161277b6040519384613d55565b868352601f1961278a88613d76565b0136602085013761279a87613d76565b916127a86040519384613d55565b878352601f196127b789613d76565b01366020850137855b8881106128ba575050508360018060a01b0360045416926127fb6040519788968795869463ead9b57f60e01b86526084359360048701614078565b03925af19081156128af578a91612895575b50895b82811061286a575050506128376125746001600160801b0360408a01511660095490614433565b916001600160801b038316101561285b579061285291614446565b94388080612299565b630317570960e11b8852600488fd5b8061288f6001600160401b0361288260019486614138565b51166125c383600d6147ae565b01612810565b6128a991503d808c833e6125f68183613d55565b3861280d565b6040513d8c823e3d90fd5b909294506001919395506001600160401b036128d68285614138565b5151166128e38289614138565b52612910846001600160801b0361265f816040612900878a614138565b5101511661265960c05185614446565b6001600160801b036129228389614138565b911690526001600160481b03602061293a8386614138565b510151166129488287614138565b5201918a93918f95936127c0565b50600019810181811161297e576129756001600160401b039184614138565b51511615612719565b634e487b7160e01b8b52601160045260248bfd5b63391434e360e21b8952336004526024526044869052606488fd5b634b637e8f60e11b88526004889052602488fd5b63368e795b60e21b8452600484fd5b9092506020813d6020116129fc575b816129ec60209383613d55565b81010312610c5d57519138612177565b3d91506129df565b62f8653360e71b8352600483fd5b503461024d578060031936011261024d576020612a2d6152f7565b604051908152f35b503461024d578060031936011261024d576020600c54604051908152f35b503461024d578060031936011261024d57602060405160128152f35b503461024d57602036600319011261024d5761024a612a8c613ee0565b612a946149f5565b614390565b503461024d57606036600319011261024d57612ab3613ee0565b612abb613ef6565b60443591612ac8816144f2565b336000908152602091909152604090205460018101612aed575b506116d69350614906565b838110612b5e576001600160a01b03821615612b4a573315612b36576116d69450612b17826144f2565b60018060a01b0333166000526020528360406000209103905538612ae2565b634a1406b160e11b85526004859052602485fd5b63e602df0560e01b85526004859052602485fd5b637dc7a0d960e11b8552336004526024526044839052606484fd5b503461024d578060031936011261024d5760206000805160206156c683398151915254604051908152f35b503461024d578060031936011261024d57546040516001600160a01b039091168152602090f35b503461024d5761016036600319011261024d57612be6613ee0565b90612bef613ef6565b916044356001600160401b038111610c7557612c0f903690600401613f5e565b906064356001600160401b038111610bc457612c2f903690600401613f5e565b906084356001600160a01b038116918282036108b05760a4356001600160a01b0381169081900361372c5760c4356001600160a01b038116929083900361326c5760e4356001600160a01b03811694908590036137285761012435956001600160a01b03871687036137245760008051602061576683398151915254976001600160401b03891680159081613714575b600114908161370a575b159081613701575b506136f25760016001600160401b03198a16176000805160206157668339815191525560ff8960401c16156136c5575b612d096152c9565b612d116152c9565b612d196152c9565b89516001600160401b03811161338c57612d4160008051602061562683398151915254614162565b601f8111613650575b508060208d601f83116001146135d057916135c5575b508160011b916000199060031b1c191617600080516020615626833981519152555b8051906001600160401b03821161338c578190612dad60008051602061568683398151915254614162565b601f8111613547575b506020908d601f84116001146134c857926134bd575b50508160011b916000199060031b1c191617600080516020615686833981519152555b612df76152c9565b604098895190612e078b83613d55565b60018252603160f81b6020830152612e1d6152c9565b8051906001600160401b0382116134a9578c8291612e4960008051602061566683398151915254614162565b601f811161342a575b50602091601f84116001146133ab57926133a0575b50508160011b916000199060031b1c191617600080516020615666833981519152555b8051906001600160401b03821161338c578190612eb56000805160206156e683398151915254614162565b601f811161330e575b506020908d601f841160011461328f5792613284575b50508160011b916000199060031b1c1916176000805160206156e6833981519152555b897fa16a46d94261c7517cc8ff89f61c0ce93598e3c849801011dee649a6a557d10055897fa16a46d94261c7517cc8ff89f61c0ce93598e3c849801011dee649a6a557d10155612f456152c9565b612f4d6152c9565b1561327057612f5b90615017565b612f636152c9565b612f6b6152c9565b612f736152c9565b600160008051602061574683398151915255612f8d6152c9565b612f956152c9565b600080516020615726833981519152805460ff19169055600480546001600160a01b0319166001600160a01b03929092169182179055803b1561326c578780916024895180948193635671e8c960e01b83528160048401525af180156132625761324d575b50600495969760018060a01b03166001600160601b0360a01b60055416176005556001600160601b0360a01b60065416176006556001600160601b0360a01b60075416176007556001600160601b0360a01b60085416176008556101043560095560018060a01b03166001600160601b0360a01b600e541617600e5561014435600f556101a060018060a01b038354168451938480926330fe427560e21b82525afa8015613240578485908691879361316c575b60035560025585546001600160a01b03199081166001600160a01b039283161787556001805490911692909116919091178155600a819055600c55601080546fffffffffffffffffffffffffffffffff1916905560401c60ff16159050613113575080f35b60207fc7f505b2f371ae2175ee4913f4499e1f2633a7b5936321eed1cdaeb6115181d29168ff0000000000000000196000805160206157668339815191525416600080516020615766833981519152555160018152a180f35b505050506101a0823d8211613238575b8161318a6101a09383613d55565b81010312610bc4578160ff92519060208101516131a886830161436f565b9261322e6101806131bb6060860161436f565b946131c860808201614383565b506131d560a08201614383565b506131e260c0820161436f565b506131ef60e0820161436f565b506131fd6101008201613fe3565b5061320b6101208201613fe3565b506132196101408201613fe3565b506132276101608201613fe3565b5001614383565b50909291926130ae565b3d915061317c565b50505051903d90823e3d90fd5b9661325b8160049899613d55565b9695612ffa565b87513d8a823e3d90fd5b8780fd5b631e4fbdf760e01b89526004899052602489fd5b015190503880612ed4565b6000805160206156e683398151915281528281209350601f198516905b8181106132f657509084600195949392106132dd575b505050811b016000805160206156e683398151915255612ef7565b015160001960f88460031b161c191690553880806132c2565b929360206001819287860151815501950193016132ac565b6000805160206156e68339815191528e529091507f5f9ce34815f8e11431c7bb75a8e6886a91478f7ffc1dbb0a98dc240fddd76b75601f840160051c81019160208510613382575b849392918f91601f0160051c0191905b828210613374575050612ebe565b81558493506001018e613366565b9091508190613356565b634e487b7160e01b8c52604160045260248cfd5b015190503880612e67565b60008051602061566683398151915281528281209350601f198516905b81811061341257509084600195949392106133f9575b505050811b0160008051602061566683398151915255612e8a565b015160001960f88460031b161c191690553880806133de565b929360206001819287860151815501950193016133c8565b60008051602061566683398151915290925291507f42ad5d3e1f2e6e70edcf6d991b8a3023d3fca8047a131592f9edb9fd9b89d57d601f840160051c8101916020851061349f575b918f9291601f8695930160051c01905b81811061348f5750612e52565b9283558493508f92600101613482565b9091508190613472565b634e487b7160e01b8d52604160045260248dfd5b015190503880612dcc565b60008051602061568683398151915281528281209350601f198516905b81811061352f5750908460019594939210613516575b505050811b0160008051602061568683398151915255612def565b015160001960f88460031b161c191690553880806134fb565b929360206001819287860151815501950193016134e5565b6000805160206156868339815191528e529091507f46a2803e59a4de4e7a4c574b1243f25977ac4c77d5a1a4a609b5394cebb4a2aa601f840160051c810191602085106135bb575b849392918f91601f0160051c0191905b8282106135ad575050612db6565b81558493506001018e61359f565b909150819061358f565b90508b015138612d60565b60008051602061562683398151915281528181209250601f198416908e5b828210613637575050908360019493921061361e575b5050811b0160008051602061562683398151915255612d82565b8d015160001960f88460031b161c191690553880613604565b600184956020939584930151815501940192018e6135ee565b6000805160206156268339815191528d527f2ae08a8e29253f69ac5d979a101956ab8f8d9d7ded63fa7a83b16fc47648eab0601f830160051c810191602084106136bb575b601f0160051c01908d905b8281106136ae575050612d4a565b6001918155018d906136a0565b9091508190613695565b68ffffffffffffffffff198916680100000000000000011760008051602061576683398151915255612d01565b63f92ee8a960e01b8b5260048bfd5b90501538612cd1565b303b159150612cc9565b60408b901c60ff16159150612cbf565b8980fd5b8880fd5b8680fd5b503461024d5760e036600319011261024d57600435801515808203610c7557613757613e27565b90613760613e3d565b613768613e11565b613770613e53565b60a4359182151580930361326c576006546001600160a01b03163303613884576001600160801b039695936101049360809693898b946137ae61471f565b6137b661475b565b6001600160481b0360018060a01b0360045416956040519d8e9b8c9a633d44fbd360e21b8c5260048c01521660248a01521660448801521660648601521515608485015260a48401528160c484015260c43560e48401525af19182156138795760209392613855575b506001600160401b038216918261384c575050600160008051602061574683398151915255604051908152f35b61153491614785565b61386f91925060803d6080116106e2576106d18183613d55565b505050903861381f565b6040513d85823e3d90fd5b631dd2188d60e31b8852600488fd5b503461024d57604036600319011261024d576116d66138b0613ee0565b6024359033615238565b503461024d578060031936011261024d57604051908060008051602061562683398151915254906138ea82614162565b80855291600181169081156118575750600114613911576116ab846117d981860382613d55565b60008051602061562683398151915281527f2ae08a8e29253f69ac5d979a101956ab8f8d9d7ded63fa7a83b16fc47648eab0939250905b808210613961575090915081016020016117d9826117c9565b919260018160209254838588010152019101909291613948565b503461024d5760c036600319011261024d576004356001600160401b038111610bc8576139ac903690600401613da3565b602435916001600160401b03831161024d573660238401121561024d5782600401356139d781613d76565b936139e56040519586613d55565b81855260208501906024829360051b82010190368211610be957602401915b818310613ce957505050604435906001600160401b038211610c755736602383011215610c7557816004013590613a3a82613d76565b92613a486040519485613d55565b82845260208401906024829460051b8201019036821161372c57602401915b818310613cc957505050613a79613e11565b613a81613e53565b6006549092906001600160a01b03163303613cba57918594979391613aa461471f565b613aac61475b565b60018060a01b036004541693604051998a9663ead9b57f60e01b885260e060048901526020613ade60e48a018d613e62565b8981036003190160248b0152915180835291019290895b818110613c95575050506020906003198884030160448901525191828152019390875b818110613c70575050506001600160801b031660648501521515608484015260a48084018590523560c484015282900390829084905af1928315613c63578193613c47575b505b8251811015613c1f5780600180613b77819487614138565b5116146001600160401b03613b8c8387614138565b5116613bfd575b826001600160401b03613ba68487614138565b511611613bb5575b5001613b5f565b15613bdc57613bd66001600160401b03613bcf8386614138565b5116614871565b38613bae565b613bf86001600160401b03613bf18386614138565b51166147d3565b613bd6565b613c1a6001600160401b03613c128488614138565b511682614785565b613b93565b600160008051602061574683398151915255604051602080825281906116ab90820186613e62565b613c5c9193503d8085833e6125f68183613d55565b9138613b5d565b50604051903d90823e3d90fd5b82516001600160481b031686528998508b975060209586019590920191600101613b18565b82516001600160801b031685528b9a508d995060209485019490920191600101613af5565b631dd2188d60e31b8652600486fd5b82356001600160481b038116810361326c57815260209283019201613a67565b82356001600160801b03811681036108b057815260209283019201613a04565b608081019081106001600160401b03821117613d2457604052565b634e487b7160e01b600052604160045260246000fd5b606081019081106001600160401b03821117613d2457604052565b90601f801991011681019081106001600160401b03821117613d2457604052565b6001600160401b038111613d245760051b60200190565b600435906001600160401b0382168203610c5d57565b9080601f83011215610c5d57813590613dbb82613d76565b92613dc96040519485613d55565b82845260208085019360051b820101918211610c5d57602001915b818310613df15750505090565b82356001600160401b0381168103610c5d57815260209283019201613de4565b606435906001600160801b0382168203610c5d57565b602435906001600160801b0382168203610c5d57565b604435906001600160481b0382168203610c5d57565b608435908115158203610c5d57565b906020808351928381520192019060005b818110613e805750505090565b82516001600160401b0316845260209384019390920191600101613e73565b919082519283825260005b848110613ecb575050826000602080949584010152601f8019910116010190565b80602080928401015182828601015201613eaa565b600435906001600160a01b0382168203610c5d57565b602435906001600160a01b0382168203610c5d57565b6001600160401b038111613d2457601f01601f191660200190565b929192613f3382613f0c565b91613f416040519384613d55565b829481845281830111610c5d578281602093846000960137010152565b9080601f83011215610c5d57816020613f7993359101613f27565b90565b906020808351928381520192019060005b818110613f9a5750505090565b909192602060606001926001600160801b03604088516001600160401b0381511684526001600160481b0386820151168685015201511660408201520194019101919091613f8d565b51906001600160401b0382168203610c5d57565b602081830312610c5d578051906001600160401b038211610c5d57019080601f83011215610c5d57815161402a81613d76565b926140386040519485613d55565b81845260208085019260051b820101928311610c5d57602001905b8282106140605750505090565b6020809161406d84613fe3565b815201910190614053565b929190614091909695949660e0855260e0850190613e62565b83810360208501526020808351928381520192019060005b8181106141195750505082810360408401526020808351928381520192019060005b8181106140fa57505050906001600160801b0360c0929516606082015260006080820152600060a08201520152565b82516001600160481b03168452602093840193909201916001016140cb565b82516001600160801b03168452602093840193909201916001016140a9565b805182101561414c5760209160051b010190565b634e487b7160e01b600052603260045260246000fd5b90600182811c92168015614192575b602083101461417c57565b634e487b7160e01b600052602260045260246000fd5b91607f1691614171565b6040519060008260008051602061566683398151915254916141bd83614162565b808352926001811690811561425057506001146141e3575b6141e192500383613d55565b565b50600080516020615666833981519152600090815290917f42ad5d3e1f2e6e70edcf6d991b8a3023d3fca8047a131592f9edb9fd9b89d57d5b8183106142345750509060206141e1928201016141d5565b602091935080600191548385890101520191019091849261421c565b602092506141e194915060ff191682840152151560051b8201016141d5565b604051906000826000805160206156e6833981519152549161429083614162565b808352926001811690811561425057506001146142b3576141e192500383613d55565b506000805160206156e6833981519152600090815290917f5f9ce34815f8e11431c7bb75a8e6886a91478f7ffc1dbb0a98dc240fddd76b755b8183106143045750509060206141e1928201016141d5565b60209193508060019154838589010152019101909184926142ec565b51906001600160801b0382168203610c5d57565b9190826080910312610c5d5761434982613fe3565b9161435660208201614320565b91613f79606061436860408501614320565b9301614320565b51906001600160a01b0382168203610c5d57565b51908115158203610c5d57565b6008546001600160a01b03828116929082168381146143f757604080516001600160a01b0393841681529190921660208201527f95bb211a5a393c4d30c3edc9a745825fba4e6ad3e3bb949e6bf8ccdfe431a8119190a16001600160a01b03191617600855565b50505050565b906001600160801b03809116911601906001600160801b03821161441d57565b634e487b7160e01b600052601160045260246000fd5b8181029291811591840414171561441d57565b906001600160801b03809116911603906001600160801b03821161441d57565b6007546001600160a01b03828116929082168381146143f757604080516001600160a01b0393841681529190921660208201527f2a76bd15cb8a480a56e510eb5f5bdd69e67d7aa235eadd7e2a0306518e6d97ab9190a16001600160a01b03191617600755565b604051906144da82613d09565b60006060838281528260208201528260408201520152565b6001600160a01b031660009081527f52c63247e1f47db19d5ce0460030c497f067ca4cebf71ba98eeadabe20bace016020526040902090565b8115614535570490565b634e487b7160e01b600052601260045260246000fd5b9180602084016020855252604083019060408160051b8501019383600091601e1982360301905b848410614583575050505050505090565b90919293949596603f19828203018752873583811215610c5d57840190602082359201916001600160401b038111610c5d578036038313610c5d576020828280600196849695859652848401376000828201840152601f01601f1916010199019701959401929190614572565b604d811161441d57600a0a90565b908160e0910312610c5d5761461281614383565b9160208201516001600160481b0381168103610c5d579161463560408201614320565b9161464260608301614320565b9161464f60808201614320565b91613f7960c061436860a08501614320565b9190820180921161441d57565b6001600160481b0360c0929594936001600160401b0360e0840197168352600060208401521660408201526001600160801b03606082015260006080820152600060a08201520152565b6006546001600160a01b03828116929082168381146143f757604080516001600160a01b0393841681529190921660208201527fe6603343f7aaffa5196c214e2249898291a999fa77d7f5f2ec1457d518724be79190a16001600160a01b03191617600655565b6002600080516020615746833981519152541461474a57600260008051602061574683398151915255565b633ee5aeb560e01b60005260046000fd5b60ff600080516020615726833981519152541661477457565b63d93c066560e01b60005260046000fd5b1561479c576001600160401b036141e191166151f0565b6001600160401b036141e191166151a8565b805482101561414c5760005260206000200190600090565b801561441d576000190190565b600a54600019810190811161441d5760005b8181106147f157505050565b6001600160401b0361480482600b6147ae565b90549060031b1c166001600160401b03841614614823576001016147e5565b9150600181101561483c575b61483991506147c6565b50565b600019810181811161441d57614839926125c361485d61486c93600b6147ae565b90549060031b1c91600b6147ae565b61482f565b600c54600019810190811161441d5760005b81811061488f57505050565b6001600160401b036148a282600d6147ae565b90549060031b1c166001600160401b038416146148c157600101614883565b915060018110156148d65761483991506147c6565b600019810181811161441d57614839926125c36148f761486c93600d6147ae565b90549060031b1c91600d6147ae565b6001600160a01b03169081156149df576001600160a01b03169182156149c957600082815260008051602061564683398151915260205260408120548281106149af5791604082827fddf252ad1be2c89b69c2b068fc378daa952ba7f163c4a11628f55a4df523b3ef95876020965260008051602061564683398151915286520382822055868152600080516020615646833981519152845220818154019055604051908152a3565b916064928463391434e360e21b8452600452602452604452fd5b63ec442f0560e01b600052600060045260246000fd5b634b637e8f60e11b600052600060045260246000fd5b6000805160206156a6833981519152546001600160a01b03163303614a1657565b63118cdaa760e01b6000523360045260246000fd5b614a336144cd565b506024606060018060a01b036004541660405192838092631e27ca4160e21b82523060048301525afa8015614d2457600091600091614ecf575b506000916000600c54906000198201918211614d5957819080614a8f84613d76565b93614a9d6040519586613d55565b808552614aac601f1991613d76565b01815b818110614ea65750505b828110614d815750614d6d575b5092600080600a54906000198201918211614d5957819080614ae784613d76565b93614af56040519586613d55565b808552614b04601f1991613d76565b01815b818110614d305750505b828110614b715750614b52575b506001600160801b0392838092968160405197614b3a89613d09565b16875216602086015216604084015216606082015292565b926001840180941161441d57600a939093556001600160801b03614b1e565b939091614be6926001600160401b03614b8b87600b6147ae565b90549060031b1c1660e08160018060a01b036005541660018060a01b0360045416604051809981948293631e678fe760e21b8452600484019092916001600160401b03602091604084019560018060a01b0316845216910152565b03915afa8015614d245760009081968291614cf5575b50614c1990614c146001600160481b03841689614f59565b6143fd565b956001600160801b038716614c8c57505050506001811015614c51575b614c42614c4b916147c6565b926001926143fd565b93614b11565b600019810181811161441d57614c4b91614c84614c72614c4293600b6147ae565b90549060031b1c6125c389600b6147ae565b915050614c36565b614cef92614c4b9597949699926001600160801b03614cea936001600160481b0360405193614cba85613d3a565b858552166020840152166040820152614cd3848b614138565b52614cde838a614138565b506125c383600b6147ae565b615178565b956143fd565b9050614c199650614d14915060e03d81116109e2576109cd8183613d55565b5050989291509250919690614bfc565b6040513d6000823e3d90fd5b602090604051614d3f81613d3a565b848152848382015284604082015282828901015201614b07565b634e487b7160e01b81526011600452602490fd5b6001810180911161441d57600c5538614ac6565b959091614d9b926001600160401b03614b8b89600d6147ae565b03915afa948515614d24576000908196614e7d575b506001600160801b038616614e19575050506001811015614dde575b614c42614dd8916147c6565b95614ab9565b600019810181811161441d57614dd891614e11614dff614c4293600d6147ae565b90549060031b1c6125c38b600d6147ae565b915050614dcc565b98614cea614e7792614dd8959794969b6001600160481b0360405191614e3e83613d3a565b8383521660208201526001600160801b0386166040820152614e60848b614138565b52614e6b838a614138565b506125c383600d6147ae565b976143fd565b9050614e9891955060e03d81116109e2576109cd8183613d55565b50919894509150614db09050565b602090604051614eb581613d3a565b848152848382015284604082015282828901015201614aaf565b9150506060813d606011614f1c575b81614eeb60609383613d55565b81010312610c5d57614efc81614320565b614f146040614f0d60208501614320565b9301614383565b509038614a6d565b3d9150614ede565b90614f2e9161452b565b6001600160801b038111614f48576001600160801b031690565b63ede341c760e01b60005260046000fd5b906001600160801b03809116911602906001600160801b03821691820361441d57565b620186a081019081811161441d576201869f0190811161441d57620186a090046001600160801b038111614f48576001600160801b031690565b81614fc091614661565b60001981019190821161441d57614f2e9161452b565b60405163a9059cbb60e01b60208201526001600160a01b039290921660248301526044808301939093529181526141e191615012606483613d55565b61535e565b60008051602061578683398151915280546001600160a01b03199081169091556000805160206156a683398151915280549182166001600160a01b0393841690811790915591167f8be0079c531659141344cd1fd0a4f28419497f9722a3daafe3b4186f6b6457e0600080a3565b90815491600160401b831015613d2457826125c39160016141e1950181556147ae565b60045490916000916001600160a01b031690813b15610c7557829160848392604051948593849263e4e117c160e01b84526001600160401b038a16600485015282602485015282604485015260648401525af180156106e957615124575b505060018181160361511b576141e190614871565b6141e1906147d3565b8161512e91613d55565b38615106565b6040516323b872dd60e01b60208201526001600160a01b0392831660248201529290911660448301526064808301939093529181526141e191615012608483613d55565b600019811461441d5760010190565b806000915b615194575090565b906151a0600a91615178565b91048061518c565b600a5460001981019190821161441d57600b5482036151dd576151cd9150600b615085565b6151d8600a54615178565b600a55565b6125c36151eb92600b6147ae565b6151cd565b600c5460001981019190821161441d57600d548203615225576152159150600d615085565b615220600c54615178565b600c55565b6125c361523392600d6147ae565b615215565b916001600160a01b0383169182156152b3576001600160a01b031692831561529d577f8c5be1e5ebec7d5bd14f71427d1e84f3dd0314c0f7b2291e5b200ac8c7c3b925916152876020926144f2565b85600052825280604060002055604051908152a3565b634a1406b160e11b600052600060045260246000fd5b63e602df0560e01b600052600060045260246000fd5b60ff6000805160206157668339815191525460401c16156152e657565b631afcd79f60e31b60005260046000fd5b6152ff6154e5565b61530761554f565b6040519060208201927f8b73c3c69bb8fe3d512ecc4cf759cc79239f7b179b0ffacaa9a75d522b39400f8452604083015260608201524660808201523060a082015260a0815261535860c082613d55565b51902090565b6000806153879260018060a01b03169360208151910182865af1615380615594565b90836155c4565b80519081151591826153b1575b505061539d5750565b635274afe760e01b60005260045260246000fd5b8192509060209181010312610c5d5760206153cc9101614383565b153880615394565b91907f7fffffffffffffffffffffffffffffff5d576e7357a4501ddfe92f46681b20a08411615451579160209360809260ff60009560405194855216868401526040830152606082015282805260015afa15614d24576000516001600160a01b038116156154455790600090600090565b50600090600190600090565b50505060009160039190565b91909160048110156154cf578061547357509050565b60006001820361548e5763f645eedf60e01b60005260046000fd5b50600281036154ac578263fce698f760e01b60005260045260246000fd5b90916003600092146154bc575050565b6335e2f38360e21b825260045260249150fd5b634e487b7160e01b600052602160045260246000fd5b6154ed61419c565b80519081156154fd576020012090565b50507fa16a46d94261c7517cc8ff89f61c0ce93598e3c849801011dee649a6a557d10054801561552a5790565b507fc5d2460186f7233c927e7db2dcc703c0e500b653ca82273b7bfad8045d85a47090565b61555761426f565b8051908115615567576020012090565b50507fa16a46d94261c7517cc8ff89f61c0ce93598e3c849801011dee649a6a557d10154801561552a5790565b3d156155bf573d906155a582613f0c565b916155b36040519384613d55565b82523d6000602084013e565b606090565b906155ea57508051156155d957805190602001fd5b630a12f52160e11b60005260046000fd5b8151158061561c575b6155fb575090565b639996b31560e01b60009081526001600160a01b0391909116600452602490fd5b50803b156155f356fe52c63247e1f47db19d5ce0460030c497f067ca4cebf71ba98eeadabe20bace0352c63247e1f47db19d5ce0460030c497f067ca4cebf71ba98eeadabe20bace00a16a46d94261c7517cc8ff89f61c0ce93598e3c849801011dee649a6a557d10252c63247e1f47db19d5ce0460030c497f067ca4cebf71ba98eeadabe20bace049016d09d72d40fdae2fd8ceac6b6234c7706214fd39c1cd1e609a0528c19930052c63247e1f47db19d5ce0460030c497f067ca4cebf71ba98eeadabe20bace02a16a46d94261c7517cc8ff89f61c0ce93598e3c849801011dee649a6a557d103360894a13ba1a3210667c828492db98dca3e2076cc3735a920a3ca505d382bbccd5ed15c6e187e77e9aee88184c21f4f2182ab5827cb3b7e07fbedcd63f033009b779b17422d0df92223018b32b4d1fa46e071723d6817e2486d003becc55f00f0c57e16840df040f15088dc2f81fe391c3923bec73e23a9662efc9c229c6a00237e158222e3e6968b72b9db0d8043aacf074ad9f650f0d1606b4d82ee432c00a26469706673582212204855c92b9874451e22bd3a5d01ca22e70cdc622076b3ba7b3acff8b4d23f8eab64736f6c634300081b0033","linkReferences":{}},"methodIdentifiers":{"DOMAIN_SEPARATOR()":"3644e515","UPGRADE_INTERFACE_VERSION()":"ad3cb1cc","acceptOwnership()":"79ba5097","allocOrderStorage(uint256)":"7e25d3bb","allowance(address,address)":"dd62ed3e","approve(address,uint256)":"095ea7b3","asksIds()":"33e20cf9","balanceOf(address)":"70a08231","batchChangeOrder(uint64[],uint128[],uint72[],uint128,bool,uint256)":"0071605f","batchClaimOrder(uint64[],uint256)":"99c6cba0","bidsIds()":"cb957617","changeLiquidityInitializer(address)":"57f7eb9f","changeMarketMaker(address)":"fc30d5aa","changeOrder(uint64,uint128,uint72,uint128,bool,uint256)":"d3a8d7c6","changePauser(address)":"2cd271e7","claimOrder(uint64,uint256)":"f9920799","currentAskOrderId()":"4e80ad06","currentBidOrderId()":"d81d9641","decimals()":"313ce567","deposit(uint128,uint128,uint256)":"dd6cbafe","eip712Domain()":"84b0196e","ethPriceFeedId()":"705ce812","getConfig()":"c3f909d4","initialize(address,address,string,string,address,address,address,address,uint256,address,bytes32)":"14fa2f57","name()":"06fdde03","nonces(address)":"7ecebe00","owner()":"8da5cb5b","pause()":"8456cb59","paused()":"5c975abb","pendingOwner()":"e30c3978","permit(address,address,uint256,uint256,uint8,bytes32,bytes32)":"d505accf","placeOrder(bool,uint128,uint72,uint128,bool,bool,uint256)":"0965c513","proxiableUUID()":"52d1902d","pyth()":"f98d06f0","renounceOwnership()":"715018a6","symbol()":"95d89b41","tokenX()":"16dc165b","tokenY()":"b7d19fc4","totalSupply()":"18160ddd","transfer(address,uint256)":"a9059cbb","transferFrom(address,address,uint256)":"23b872dd","transferOwnership(address)":"f2fde38b","unpause()":"3f4ba83a","updateQuotes(bytes[])":"f84b1ef4","updateReservesAndOrders()":"6acbf9c0","upgradeToAndCall(address,bytes)":"4f1ef286","withdraw(uint256,uint128,uint128,uint128,uint256)":"3f15ede6"},"id":42}